{
  "_format": "hh-sol-artifact-1",
  "contractName": "Vesting",
  "sourceName": "contracts/Vesting.sol",
  "abi": [
    {
      "inputs": [
        {
          "internalType": "address",
          "name": "_tokenAddress",
          "type": "address"
        }
      ],
      "stateMutability": "nonpayable",
      "type": "constructor"
    },
    {
      "inputs": [
        {
          "internalType": "address",
          "name": "_stakeholder",
          "type": "address"
        },
        {
          "internalType": "uint256",
          "name": "_amount",
          "type": "uint256"
        },
        {
          "internalType": "uint256",
          "name": "_releaseTime",
          "type": "uint256"
        }
      ],
      "name": "addStakeholder",
      "outputs": [],
      "stateMutability": "nonpayable",
      "type": "function"
    },
    {
      "inputs": [],
      "name": "claimTokens",
      "outputs": [],
      "stateMutability": "nonpayable",
      "type": "function"
    },
    {
      "inputs": [
        {
          "internalType": "address",
          "name": "",
          "type": "address"
        }
      ],
      "name": "stakeholders",
      "outputs": [
        {
          "internalType": "uint256",
          "name": "amount",
          "type": "uint256"
        },
        {
          "internalType": "uint256",
          "name": "releaseTime",
          "type": "uint256"
        },
        {
          "internalType": "bool",
          "name": "claimed",
          "type": "bool"
        }
      ],
      "stateMutability": "view",
      "type": "function"
    },
    {
      "inputs": [],
      "name": "token",
      "outputs": [
        {
          "internalType": "contract IERC20",
          "name": "",
          "type": "address"
        }
      ],
      "stateMutability": "view",
      "type": "function"
    }
  ],
  "bytecode": "0x608060405234801561001057600080fd5b50604051610818380380610818833981810160405281019061003291906100dc565b80600160006101000a81548173ffffffffffffffffffffffffffffffffffffffff021916908373ffffffffffffffffffffffffffffffffffffffff16021790555050610109565b600080fd5b600073ffffffffffffffffffffffffffffffffffffffff82169050919050565b60006100a98261007e565b9050919050565b6100b98161009e565b81146100c457600080fd5b50565b6000815190506100d6816100b0565b92915050565b6000602082840312156100f2576100f1610079565b5b6000610100848285016100c7565b91505092915050565b610700806101186000396000f3fe608060405234801561001057600080fd5b506004361061004c5760003560e01c806348c54b9d146100515780634beab8981461005b578063c07cfca914610077578063fc0c546a146100a9575b600080fd5b6100596100c7565b005b610075600480360381019061007091906103f5565b610267565b005b610091600480360381019061008c9190610448565b6102ff565b6040516100a09392919061049f565b60405180910390f35b6100b1610336565b6040516100be9190610535565b60405180910390f35b60008060003373ffffffffffffffffffffffffffffffffffffffff1673ffffffffffffffffffffffffffffffffffffffff16815260200190815260200160002090508060010154421015610150576040517f08c379a0000000000000000000000000000000000000000000000000000000008152600401610147906105ad565b60405180910390fd5b8060020160009054906101000a900460ff16156101a2576040517f08c379a000000000000000000000000000000000000000000000000000000000815260040161019990610619565b60405180910390fd5b60018160020160006101000a81548160ff021916908315150217905550600160009054906101000a900473ffffffffffffffffffffffffffffffffffffffff1673ffffffffffffffffffffffffffffffffffffffff1663a9059cbb3383600001546040518363ffffffff1660e01b8152600401610220929190610648565b6020604051808303816000875af115801561023f573d6000803e3d6000fd5b505050506040513d601f19601f82011682018060405250810190610263919061069d565b5050565b6040518060600160405280838152602001828152602001600015158152506000808573ffffffffffffffffffffffffffffffffffffffff1673ffffffffffffffffffffffffffffffffffffffff168152602001908152602001600020600082015181600001556020820151816001015560408201518160020160006101000a81548160ff021916908315150217905550905050505050565b60006020528060005260406000206000915090508060000154908060010154908060020160009054906101000a900460ff16905083565b600160009054906101000a900473ffffffffffffffffffffffffffffffffffffffff1681565b600080fd5b600073ffffffffffffffffffffffffffffffffffffffff82169050919050565b600061038c82610361565b9050919050565b61039c81610381565b81146103a757600080fd5b50565b6000813590506103b981610393565b92915050565b6000819050919050565b6103d2816103bf565b81146103dd57600080fd5b50565b6000813590506103ef816103c9565b92915050565b60008060006060848603121561040e5761040d61035c565b5b600061041c868287016103aa565b935050602061042d868287016103e0565b925050604061043e868287016103e0565b9150509250925092565b60006020828403121561045e5761045d61035c565b5b600061046c848285016103aa565b91505092915050565b61047e816103bf565b82525050565b60008115159050919050565b61049981610484565b82525050565b60006060820190506104b46000830186610475565b6104c16020830185610475565b6104ce6040830184610490565b949350505050565b6000819050919050565b60006104fb6104f66104f184610361565b6104d6565b610361565b9050919050565b600061050d826104e0565b9050919050565b600061051f82610502565b9050919050565b61052f81610514565b82525050565b600060208201905061054a6000830184610526565b92915050565b600082825260208201905092915050565b7f546f6b656e7320617265206e6f74207965742076657374656400000000000000600082015250565b6000610597601983610550565b91506105a282610561565b602082019050919050565b600060208201905081810360008301526105c68161058a565b9050919050565b7f546f6b656e7320616c726561647920636c61696d656400000000000000000000600082015250565b6000610603601683610550565b915061060e826105cd565b602082019050919050565b60006020820190508181036000830152610632816105f6565b9050919050565b61064281610381565b82525050565b600060408201905061065d6000830185610639565b61066a6020830184610475565b9392505050565b61067a81610484565b811461068557600080fd5b50565b60008151905061069781610671565b92915050565b6000602082840312156106b3576106b261035c565b5b60006106c184828501610688565b9150509291505056fea264697066735822122051dcd272202e9adec38e9119492cd08d7461ededf9f18902882e6303f83124d764736f6c63430008140033",
  "linkReferences": {},
  "deployedLinkReferences": {}
}